{
    "contractName": "Factory",
    "abi": [
        {
            "inputs": [
                {
                    "internalType": "uint256",
                    "name": "_fee",
                    "type": "uint256"
                }
            ],
            "stateMutability": "nonpayable",
            "type": "constructor"
        },
        {
            "inputs": [
                {
                    "internalType": "string",
                    "name": "_name",
                    "type": "string"
                },
                {
                    "internalType": "string",
                    "name": "_symbol",
                    "type": "string"
                }
            ],
            "name": "create",
            "outputs": [],
            "stateMutability": "payable",
            "type": "function"
        },
        {
            "inputs": [],
            "name": "fee",
            "outputs": [
                {
                    "internalType": "uint256",
                    "name": "",
                    "type": "uint256"
                }
            ],
            "stateMutability": "view",
            "type": "function"
        },
        {
            "inputs": [
                {
                    "internalType": "uint256",
                    "name": "_idx",
                    "type": "uint256"
                }
            ],
            "name": "getTokenSale",
            "outputs": [
                {
                    "components": [
                        {
                            "internalType": "address",
                            "name": "token",
                            "type": "address"
                        },
                        {
                            "internalType": "string",
                            "name": "name",
                            "type": "string"
                        },
                        {
                            "internalType": "address",
                            "name": "creator",
                            "type": "address"
                        },
                        {
                            "internalType": "uint256",
                            "name": "sold",
                            "type": "uint256"
                        },
                        {
                            "internalType": "uint256",
                            "name": "raised",
                            "type": "uint256"
                        },
                        {
                            "internalType": "bool",
                            "name": "isOpen",
                            "type": "bool"
                        }
                    ],
                    "internalType": "struct Factory.TokenSale",
                    "name": "",
                    "type": "tuple"
                }
            ],
            "stateMutability": "view",
            "type": "function"
        },
        {
            "inputs": [],
            "name": "getTotalTokens",
            "outputs": [
                {
                    "internalType": "uint256",
                    "name": "count",
                    "type": "uint256"
                }
            ],
            "stateMutability": "view",
            "type": "function"
        },
        {
            "inputs": [],
            "name": "owner",
            "outputs": [
                {
                    "internalType": "address",
                    "name": "",
                    "type": "address"
                }
            ],
            "stateMutability": "view",
            "type": "function"
        },
        {
            "inputs": [
                {
                    "internalType": "address",
                    "name": "",
                    "type": "address"
                }
            ],
            "name": "tokenToSale",
            "outputs": [
                {
                    "internalType": "address",
                    "name": "token",
                    "type": "address"
                },
                {
                    "internalType": "string",
                    "name": "name",
                    "type": "string"
                },
                {
                    "internalType": "address",
                    "name": "creator",
                    "type": "address"
                },
                {
                    "internalType": "uint256",
                    "name": "sold",
                    "type": "uint256"
                },
                {
                    "internalType": "uint256",
                    "name": "raised",
                    "type": "uint256"
                },
                {
                    "internalType": "bool",
                    "name": "isOpen",
                    "type": "bool"
                }
            ],
            "stateMutability": "view",
            "type": "function"
        },
        {
            "inputs": [
                {
                    "internalType": "uint256",
                    "name": "",
                    "type": "uint256"
                }
            ],
            "name": "tokens",
            "outputs": [
                {
                    "internalType": "address",
                    "name": "",
                    "type": "address"
                }
            ],
            "stateMutability": "view",
            "type": "function"
        },
        {
            "inputs": [],
            "name": "totalTokens",
            "outputs": [
                {
                    "internalType": "uint256",
                    "name": "",
                    "type": "uint256"
                }
            ],
            "stateMutability": "view",
            "type": "function"
        }
    ],
    "bytecode": "60c034606357601f61135f38819003918201601f19168301916001600160401b03831184841017606757808492602094604052833981010312606357516080523360a0526040516112e3908161007c82396080518160a9015260a051816101850152f35b5f80fd5b634e487b7160e01b5f52604160045260245ffdfe60806040526004361015610011575f80fd5b5f3560e01c8063198e2b8a146103385780631fbc147b146102125780634f64b2be146101d05780637e1c0c09146101b45780638da5cb5b146101705780639c0ad5ed146100cc578063ddca3f43146100925763f08b82e614610071575f80fd5b3461008e575f36600319011261008e576020600154604051908152f35b5f80fd5b3461008e575f36600319011261008e5760206040517f00000000000000000000000000000000000000000000000000000000000000008152f35b3461008e57602036600319011261008e576004356001600160a01b0381169081900361008e575f90815260026020526040902080546001600160a01b031661011660018301610753565b9160018060a01b036002820154169060038101549060ff600560048301549201541691610155604051968796875260c0602088015260c08701906106cb565b93604086015260608501526080840152151560a08301520390f35b3461008e575f36600319011261008e576040517f00000000000000000000000000000000000000000000000000000000000000006001600160a01b03168152602090f35b3461008e575f36600319011261008e5760205f54604051908152f35b3461008e57602036600319011261008e5760043560015481101561008e576101f96020916106ef565b905460405160039290921b1c6001600160a01b03168152f35b3461008e57602036600319011261008e575f60a060405161023281610637565b82815260606020820152826040820152826060820152826080820152015261025b6004356106ef565b60018060a01b0391549060031b1c165f52600260205260405f2060405161028181610637565b81546001600160a01b0316815261029a60018301610753565b916020820192835260018060a01b0360028201541690604083019182526003810154906060840191825260ff6005600483015492608087019384520154169160a0850192151583526103106040519687966020885260018060a01b0390511660208801525160c0604088015260e08701906106cb565b93516001600160a01b031660608601525160808501525160a084015251151560c08301520390f35b604036600319011261008e5760043567ffffffffffffffff811161008e57610364903690600401610675565b60243567ffffffffffffffff811161008e57610384903690600401610675565b60405190610aba8083019083821067ffffffffffffffff8311176106045760606103df859469d3c21bcecceda1000000936107f48739338552608060208601526103d160808601896106cb565b9085820360408701526106cb565b92015203905ff0801561062c5760018060a01b0316600154680100000000000000008110156106045780600161041892016001556106ef565b81546001600160a01b0360039290921b91821b19169083901b1790555f545f198114610618576001015f5560405161044f81610637565b8181526020810192835260408101338152606082015f815260808301915f835260a0840194600186525f52600260205260405f209360018060a01b039060018060a01b03905116166bffffffffffffffffffffffff60a01b85541617845560018401955195865167ffffffffffffffff8111610604576104cf825461071b565b601f81116105bf575b506020601f821160011461055a578190600598995f9261054f575b50508160011b915f199060031b1c19161790555b516002840180546001600160a01b039092166001600160a01b031990921691909117905551600383015551600482015591519101805460ff191691151560ff16919091179055005b0151905089806104f3565b601f19821698835f52815f20995f5b8181106105a75750916005999a9184600195941061058f575b505050811b019055610507565b01515f1960f88460031b161c19169055898080610582565b838301518c556001909b019a60209384019301610569565b825f5260205f20601f830160051c810191602084106105fa575b601f0160051c01905b8181106105ef57506104d8565b5f81556001016105e2565b90915081906105d9565b634e487b7160e01b5f52604160045260245ffd5b634e487b7160e01b5f52601160045260245ffd5b6040513d5f823e3d90fd5b60c0810190811067ffffffffffffffff82111761060457604052565b90601f8019910116810190811067ffffffffffffffff82111761060457604052565b81601f8201121561008e5780359067ffffffffffffffff821161060457604051926106aa601f8401601f191660200185610653565b8284526020838301011161008e57815f926020809301838601378301015290565b805180835260209291819084018484015e5f828201840152601f01601f1916010190565b6001548110156107075760015f5260205f2001905f90565b634e487b7160e01b5f52603260045260245ffd5b90600182811c92168015610749575b602083101461073557565b634e487b7160e01b5f52602260045260245ffd5b91607f169161072a565b9060405191825f8254926107668461071b565b80845293600181169081156107d1575060011461078d575b5061078b92500383610653565b565b90505f9291925260205f20905f915b8183106107b557505090602061078b928201015f61077e565b602091935080600191548385890101520191019091849261079c565b90506020925061078b94915060ff191682840152151560051b8201015f61077e56fe6080604052346103d457610aba80380380610019816103d8565b9283398101906080818303126103d45780516001600160a01b038116908190036103d45760208201516001600160401b0381116103d4578361005c9184016103fd565b60408301519093906001600160401b0381116103d4576060916100809185016103fd565b92015183519091906001600160401b0381116102e557600354600181811c911680156103ca575b60208210146102c757601f8111610367575b50602094601f8211600114610304579481929394955f926102f9575b50508160011b915f199060031b1c1916176003555b82516001600160401b0381116102e557600454600181811c911680156102db575b60208210146102c757601f8111610264575b506020601f821160011461020157819293945f926101f6575b50508160011b915f199060031b1c1916176004555b3360018060a01b0319600554161760055560018060a01b0319600654161760065533156101e3576002548181018091116101cf57600255335f525f60205260405f208181540190556040519081525f7fddf252ad1be2c89b69c2b068fc378daa952ba7f163c4a11628f55a4df523b3ef60203393a360405161066b908161044f8239f35b634e487b7160e01b5f52601160045260245ffd5b63ec442f0560e01b5f525f60045260245ffd5b015190505f80610136565b601f1982169060045f52805f20915f5b81811061024c57509583600195969710610234575b505050811b0160045561014b565b01515f1960f88460031b161c191690555f8080610226565b9192602060018192868b015181550194019201610211565b60045f527f8a35acfbc15ff81a39ae7d344fd709f28e8600b4aa8c65c6b64bfe7fe36bd19b601f830160051c810191602084106102bd575b601f0160051c01905b8181106102b2575061011d565b5f81556001016102a5565b909150819061029c565b634e487b7160e01b5f52602260045260245ffd5b90607f169061010b565b634e487b7160e01b5f52604160045260245ffd5b015190505f806100d5565b601f1982169560035f52805f20915f5b88811061034f57508360019596979810610337575b505050811b016003556100ea565b01515f1960f88460031b161c191690555f8080610329565b91926020600181928685015181550194019201610314565b60035f527fc2575a0e9e593c00f959f8c92f12db2869c3395a3b0502d05e2516446f71f85b601f830160051c810191602084106103c0575b601f0160051c01905b8181106103b557506100b9565b5f81556001016103a8565b909150819061039f565b90607f16906100a7565b5f80fd5b6040519190601f01601f191682016001600160401b038111838210176102e557604052565b81601f820112156103d4578051906001600160401b0382116102e55761042c601f8301601f19166020016103d8565b92828452602083830101116103d457815f9260208093018386015e830101529056fe6080806040526004361015610012575f80fd5b5f3560e01c90816302d05d3f146104ff5750806306fdde031461042d578063095ea7b3146103ab57806318160ddd1461038e57806323b872dd146102af578063313ce5671461029457806370a082311461025d5780638da5cb5b1461023557806395d89b411461011a578063a9059cbb146100e95763dd62ed3e14610095575f80fd5b346100e55760403660031901126100e5576100ae61054c565b6100b6610562565b6001600160a01b039182165f908152600160209081526040808320949093168252928352819020549051908152f35b5f80fd5b346100e55760403660031901126100e55761010f61010561054c565b6024359033610578565b602060405160018152f35b346100e5575f3660031901126100e5576040515f6004548060011c9060018116801561022b575b602083108114610217578285529081156101fb57506001146101a6575b50819003601f01601f191681019067ffffffffffffffff8211818310176101925761018e82918260405282610522565b0390f35b634e487b7160e01b5f52604160045260245ffd5b905060045f527f8a35acfbc15ff81a39ae7d344fd709f28e8600b4aa8c65c6b64bfe7fe36bd19b5f905b8282106101e55750602091508201018261015e565b60018160209254838588010152019101906101d0565b90506020925060ff191682840152151560051b8201018261015e565b634e487b7160e01b5f52602260045260245ffd5b91607f1691610141565b346100e5575f3660031901126100e5576005546040516001600160a01b039091168152602090f35b346100e55760203660031901126100e5576001600160a01b0361027e61054c565b165f525f602052602060405f2054604051908152f35b346100e5575f3660031901126100e557602060405160128152f35b346100e55760603660031901126100e5576102c861054c565b6102d0610562565b6001600160a01b0382165f818152600160209081526040808320338452909152902054909260443592915f19811061030e575b5061010f9350610578565b83811061037357841561036057331561034d5761010f945f52600160205260405f2060018060a01b0333165f526020528360405f209103905584610303565b634a1406b160e11b5f525f60045260245ffd5b63e602df0560e01b5f525f60045260245ffd5b8390637dc7a0d960e11b5f523360045260245260445260645ffd5b346100e5575f3660031901126100e5576020600254604051908152f35b346100e55760403660031901126100e5576103c461054c565b602435903315610360576001600160a01b031690811561034d57335f52600160205260405f20825f526020528060405f20556040519081527f8c5be1e5ebec7d5bd14f71427d1e84f3dd0314c0f7b2291e5b200ac8c7c3b92560203392a3602060405160018152f35b346100e5575f3660031901126100e5576040515f6003548060011c906001811680156104f5575b602083108114610217578285529081156101fb57506001146104a05750819003601f01601f191681019067ffffffffffffffff8211818310176101925761018e82918260405282610522565b905060035f527fc2575a0e9e593c00f959f8c92f12db2869c3395a3b0502d05e2516446f71f85b5f905b8282106104df5750602091508201018261015e565b60018160209254838588010152019101906104ca565b91607f1691610454565b346100e5575f3660031901126100e5576006546001600160a01b03168152602090f35b602060409281835280519182918282860152018484015e5f828201840152601f01601f1916010190565b600435906001600160a01b03821682036100e557565b602435906001600160a01b03821682036100e557565b6001600160a01b0316908115610622576001600160a01b031691821561060f57815f525f60205260405f20548181106105f657817fddf252ad1be2c89b69c2b068fc378daa952ba7f163c4a11628f55a4df523b3ef92602092855f525f84520360405f2055845f525f825260405f20818154019055604051908152a3565b8263391434e360e21b5f5260045260245260445260645ffd5b63ec442f0560e01b5f525f60045260245ffd5b634b637e8f60e11b5f525f60045260245ffdfea2646970667358221220aba46d5d442a62b67129346afd81d291410f09b15807bed6c88d165512fa9ffb64736f6c634300081e0033a2646970667358221220176af82bc63dd1fbecee460be4973cdbed25f4c6ca552a345d5b6e0414eb890b64736f6c634300081e0033",
    "sourcePath": "c:/Projects/voting/contracts/tacs/Factory.sol",
    "compiler": {
        "name": "solc",
        "version": "0.8.30+commit.73712a01"
    },
    "functionHashes": {
        "create(string,string)": "198e2b8a",
        "fee()": "ddca3f43",
        "getTokenSale(uint256)": "1fbc147b",
        "getTotalTokens()": "f08b82e6",
        "owner()": "8da5cb5b",
        "tokenToSale(address)": "9c0ad5ed",
        "tokens(uint256)": "4f64b2be",
        "totalTokens()": "7e1c0c09"
    },
    "gasEstimates": {
        "creation": {
            "codeDepositCost": "967000",
            "executionCost": "infinite",
            "totalCost": "infinite"
        },
        "external": {
            "create(string,string)": "infinite",
            "fee()": "infinite",
            "getTokenSale(uint256)": "infinite",
            "getTotalTokens()": "2399",
            "owner()": "infinite",
            "tokenToSale(address)": "infinite",
            "tokens(uint256)": "6669",
            "totalTokens()": "2313"
        }
    }
}